:020000040800F2
:1000000000800120514C0008BD050008BF05000814
:10001000C1050008C3050008C50500080000000070
:10002000000000000000000000000000413800084F
:10003000C705000800000000E1380008CF330008C1
:10004000A14C0008A14C0008A14C0008A14C0008DC
:10005000A14C0008A14C0008A14C0008A14C0008CC
:10006000A14C0008A14C0008A14C0008A14C0008BC
:10007000A14C0008A14C0008A14C0008A14C0008AC
:10008000A14C0008A14C0008A14C0008A14C00089C
:10009000A14C0008A14C0008A14C0008A14C00088C
:1000A000A14C0008C9050008A14C0008A14C00089B
:1000B000A14C0008A14C0008A14C0008A14C00086C
:1000C000A14C0008A14C0008A14C0008A14C00085C
:1000D000A14C0008A14C0008A14C0008A14C00084C
:1000E000A14C0008A14C0008A14C0008A14C00083C
:1000F000A14C0008A14C0008A14C0008A14C00082C
:10010000A14C0008A14C0008A14C0008A14C00081B
:10011000A14C0008A14C0008A14C0008A14C00080B
:10012000A14C0008A14C0008A14C0008A14C0008FB
:10013000A14C0008A14C0008A14C0008A14C0008EB
:10014000A14C0008A14C0008A14C0008A14C0008DB
:10015000A14C0008A14C0008A14C0008A14C0008CB
:10016000A14C0008A14C0008A14C0008A14C0008BB
:10017000A14C0008A14C0008000000000000000095
:08018000A14C0008A14C00088D
:10019000034613F8012B002AFBD1181A01387047C7
:1001A00053B94AB9002908BF00281CBF4FF0FF31DE
:1001B0004FF0FF3000F00CB8ADF1080C6DE904CE43
:1001C00004F0AAFDDDF804E0DDE9022304B0704785
:1001D000704700BF0348044B834202D0034B03B176
:1001E0001847704710000020100000200000000099
:1001F0000548064B1B1AD90F01EBA301491002D089
:10020000034B03B118477047100000201000002076
:100210000000000010B5064C237843B9FFF7DAFF61
:10022000044B13B10448AFF300800123237010BDC9
:100230001000002000000000D44F000808B5054B56
:100240001BB105490548AFF30080BDE80840FFF742
:10025000CFBF00BF0000000014000020D44F0008F2
:1002600008B520214FF0904001F092FB4FF4FA7056
:1002700002F0ECFCF5E7000000B58BB03F4B93E8D3
:1002800003000890ADF824103D4B93E8030006905E
:10029000ADF81C10090C8DF81E103A4A03AB07CAC2
:1002A00003C31A70384A01AB92E8030083E80300E5
:1002B0000421364801F060FB38B301214FF0904033
:1002C00001F05AFB78B302214FF0904001F054FB4B
:1002D000002836D010212D4801F04EFB00283ED0DA
:1002E0004FF480412A4801F047FB0028E0D101A8E3
:1002F000FFF74EFF4FF0FF3382B201A9254804F00B
:10030000AFFB962002F0A2FCD2E708A8FFF740FF5F
:100310004FF0FF3382B208A91E4804F0A1FB9620DB
:1003200002F094FCC9E706A8FFF732FF4FF0FF3355
:1003300082B206A9174804F093FB962002F086FCCF
:10034000C1E703A8FFF724FF4FF0FF3382B203A9F0
:10035000104804F085FB962002F078FCBAE701A86B
:10036000FFF716FF4FF0FF3382B201A9094804F0EE
:1003700077FB962002F06AFCB2E700BFF04F00085E
:10038000F84F0008005000080C5000080004004816
:10039000000C00485C1A002008B50268034B9A4222
:1003A00000D008BD00F092F9FBE700BF002C01402F
:1003B00072B6FEE700B597B04422002105A804F00C
:1003C00070FC0023009301930293039304934FF472
:1003D000007001F0EFFA28BB1023059301220B9265
:1003E00000230C9360230D9302230F93109211921C
:1003F00028221292072213921493159305A800F055
:1004000019FA88B90F230093032301930023029361
:10041000039304930421684600F01AFD30B917B025
:100420005DF804FBFFF7C4FFFFF7C2FFFFF7C0FF53
:1004300000B5A3B088220021684604F032FC4FF4D6
:10044000804300934FF080531E9301230193029346
:1004500018230393072304930223059306934FF075
:1004600080730793684600F05DFF10B923B05DF814
:1004700004FBFFF79DFF000000B583B000F016F904
:10048000FFF798FFFFF7D4FF00F02CF804F01AF8FC
:1004900003F03CFB03F08AFB0C4B019337240094E0
:1004A000002380220A490B4802F03BFA0A4B0193D1
:1004B0000094002380220949094802F032FA02F030
:1004C00093FF00F06BF802F0A1FFFEE73000002080
:1004D00014500008610200082C000020245000087D
:1004E0007902000830B58BB0002405940694079477
:1004F00008940994244BDA6C42F08002DA64DA6CD6
:1005000002F080020192019ADA6C42F00402DA648D
:10051000DA6C02F004020292029ADA6C42F00102F2
:10052000DA64DA6C02F001020392039ADA6C42F0A8
:100530000202DA64DB6C03F002030493049B22469C
:1005400020214FF0904001F01EFA032305930694FA
:100550000125079505A94FF0904001F00DF92023E2
:10056000059306950794089405A94FF0904001F073
:1005700003F914230593069407950DEB0301034833
:1005800001F0FAF80BB030BD001002400004004842
:1005900008B5012002F0B4FFFBE7000008B5044AEB
:1005A0000021044802F04EFF034B186008BD00BF55
:1005B0003C5000089105000834000020FEE7FEE7EB
:1005C000FEE7FEE7FEE7704708B5024801F0EEFAE5
:1005D00008BD00BF3800002000B583B00D4B1A6E77
:1005E00042F001021A661A6E02F001020092009AAD
:1005F0009A6D42F080529A659B6D03F0805301938F
:10060000019B00220F216FF0010001F06FFA03B08F
:100610005DF804FB0010024030B589B004461E4B63
:100620001A6E42F400621A661B6E03F400630193B3
:10063000019B02A903A800F0F9FC00F0E5FC174AB1
:10064000A2FB00239B0C013B1548164A026040F2B6
:10065000E732C2604360002303618360836101F07D
:10066000C7FB054610B1284609B030BD0C4801F063
:1006700053FA05460028F6D1192001F047FA0F2C4D
:1006800001D90125EFE700222146192001F02EFAB9
:10069000054B1C60E7E700BF0010024083DE1B43F0
:1006A00038000020002C01400400002010B5032079
:1006B00001F00AFA0F20FFF7AFFF10B10124204626
:1006C00010BD0446FFF788FFF9E70000034B1B78D5
:1006D000034A11680B441360704700BF00000020FC
:1006E00084000020014B1868704700BF8400002080
:1006F00030B583B00446204B9B6D13F0805F0BD068
:1007000001F050F9B0F5007F17D0802C1FD82DD004
:10071000702C2DD000211BE0174DAB6D43F08053A2
:10072000AB65AB6D03F080530193019B01F03AF987
:10073000AB6D23F08053AB65E4E7802C03D9A02C8C
:1007400003D9022104E0002102E0012100E003219D
:100750000A4A136823F007030B431360136803F07E
:1007600007038B4206D1002003B030BD0221EFE722
:100770000121EDE70120F7E70010024000200240D0
:10078000284A9368D26802F0030213F00C030AD0DF
:100790000C2B06D0042B1FD0082B20D000200246A3
:1007A00010E0012AF6D11F4A126812F0080F0CD18E
:1007B0001C4AD2F89420C2F303221B4951F822208C
:1007C00043B100200C2B0DD07047164A1268C2F3BB
:1007D0000312F2E71046F5E714480022F2E7144846
:1007E0000022EFE70F4BDB6803F00303022B16D068
:1007F000032B00D10E4A0B49CB68C3F3021301331C
:10080000C868C0F3062002FB00F0B0FBF3F0CB6831
:10081000C3F3416301335B00B0FBF3F0D4E7034A59
:10082000E9E700BF00100240605000080024F40017
:1008300000127A00002800F0F182F0B583B004467F
:10084000964B9D6805F00C05DE6806F0030603680C
:1008500013F0100F5AD0E5B10C2D18D0A369002B5E
:1008600000F0BB808D4A136843F001031360FFF76B
:1008700039FF0746894B1B6813F0020F40F09A803E
:10088000FFF730FFC01B0228F4D90320D1E2012E6C
:10089000E4D1824B1B6813F0020F03D0A369002B35
:1008A00000F0BE82206A7D4B1B6813F0080F5BD0FE
:1008B0007A4B1B6803F0F00398425CD8774B1A68B8
:1008C00042F008021A601A6822F0F002216A0A4314
:1008D0001A605A6822F47F42E16942EA01225A60B2
:1008E000002D60D0FFF74CFF6C4B9B68C3F30313E4
:1008F0006B4AD35C03F01F03D8406A4B18606A4B05
:100900001868FFF789FE002840F09382236813F0EF
:10091000010F00F08180082D75D00C2D71D0636817
:10092000B3F5803F00F09780B3F5A02F00F09980D9
:100930005A4B1A6822F480321A601A6822F4802214
:100940001A606368002B00F09980FFF7CBFE074622
:10095000524B1B6813F4003F5ED1FFF7C3FEC01B70
:100960006428F5D9032064E24C4BD3F894301B097A
:1009700003F0F003A0E7FFF7BBFE002840F052822F
:10098000464B1A6842F008021A601A6822F0F00218
:10099000216A0A431A605A6822F47F42E16942EAF6
:1009A00001225A609EE7206AFFF7A2FE002899D034
:1009B00001203EE2394B1A6842F008021A601A68B8
:1009C00022F0F002216A0A431A605A6822F47F4238
:1009D000E16942EA01225A6098E7304A136823F03D
:1009E00001031360FFF77EFE07462C4B1B6813F0D4
:1009F000020F8BD0FFF776FEC01B0228F5D903202B
:100A000017E2032E8BD1254B1B6813F4003F03D054
:100A10006368002B00F00882236813F0020F58D09F
:100A2000042D45D00C2D41D0E368002B77D01B4A14
:100A3000136843F480731360FFF754FE0646174BA8
:100A40001B6813F4806F61D1FFF74CFE801B0228F6
:100A5000F5D90320EDE1114A136843F480331360A4
:100A60006FE703F18043A3F53C331A6842F4802218
:100A70001A601A6842F480321A6062E7FFF732FEA9
:100A80000746064B1B6813F4003FC5D0FFF72AFE4C
:100A9000C01B6428F5D90320CBE100BF0010024041
:100AA000985000080800002004000020022EBBD14E
:100AB000A34B1B6813F4806F03D0E368002B00F096
:100AC000B5819F4A536823F0F853216943EA0163D3
:100AD0005360236813F0080F4CD063699BB3984AA6
:100AE000D2F8943043F00103C2F89430FFF7FAFDD6
:100AF0000646934BD3F8943013F0020F3AD1FFF728
:100B0000F1FD801B0228F4D9032092E18C4A53683E
:100B100023F0F853216943EA01635360D9E7884A17
:100B2000136823F480731360FFF7DCFD0646844BE3
:100B30001B6813F4806FCCD0FFF7D4FD801B022814
:100B4000F5D9032075E17E4AD2F8943023F00103F1
:100B5000C2F89430FFF7C6FD0646794BD3F89430BF
:100B600013F0020F06D0FFF7BDFD801B0228F4D959
:100B700003205EE1236813F0040F7AD0704B9B6D65
:100B800013F0805F36D16E4B9A6D42F080529A65B9
:100B90009B6D03F080530193019B0126694B1B68F9
:100BA00013F4807F28D0A368012B39D0052B3FD0C8
:100BB000634BD3F8902022F00102C3F89020D3F8C1
:100BC000902022F00402C3F89020A368002B3DD0AF
:100BD000FFF788FD07465A4BD3F8903013F0020F09
:100BE00046D1FFF77FFDC01B41F288339842F2D90E
:100BF00003201EE10026D1E7524A136843F48073B4
:100C00001360FFF76FFD07464E4B1B6813F4807FA0
:100C1000C9D1FFF767FDC01B0228F5D9032008E101
:100C2000474AD2F8903043F00103C2F89030CCE745
:100C3000434BD3F8902042F00402C3F89020D3F83D
:100C4000902042F00102C3F89020BEE7FFF74AFD72
:100C500007463B4BD3F8903013F0020F08D0FFF754
:100C600041FDC01B41F288339842F2D90320E0E0F5
:100C7000EEB9A36A002B00F0DB80022B1DD00C2DF7
:100C800000F0DD802E4A136823F080731360FFF7B5
:100C900029FD04462A4B1B6813F0007F00F0B78043
:100CA000FFF720FD001B0228F4D90320C1E0244AED
:100CB000936D23F080539365DBE7214BDB6803F0F2
:100CC0000301E26A91420FD00C2D00F0B4801C4B5E
:100CD0001B6813F0806F40F0B080194B1B6813F055
:100CE000805F31D00120A4E003F07002216B013954
:100CF000B2EB011FE8D103F4FE42616BB2EB012FAE
:100D0000E2D103F40031A26B073A18BF01229142ED
:100D1000DAD103F4C001E26B5208013AB1EB425F51
:100D2000D2D103F0C063226C5208013AB3EB426F98
:100D3000CAD1034B1B6813F0007F4ED0002078E02F
:100D400000100240007000403E4A136823F0807398
:100D50001360FFF7C7FC05463A4B1B6813F0007F92
:100D600006D0FFF7BFFC401B0228F5D9032060E046
:100D7000344AD36834491940E36A206B013843EAA6
:100D80000013606B43EA0023E06B4008013843EA3C
:100D90004053206C4008013843EA4063A06B0009CF
:100DA00043EA40431943D160136843F080731360F2
:100DB000D36843F08073D360FFF794FC0446214B63
:100DC0001B6813F0007F06D1FFF78CFC001B022884
:100DD000F5D903202DE000202BE01A4B1A6842F0D1
:100DE00080721A60DA6842F08072DA60FFF77AFC8B
:100DF0000446144B1B6813F0007F06D1FFF772FC0A
:100E0000031B022BF5D9032013E0002011E00D4A4B
:100E1000D1680E4B0B40D36000200AE001207047E0
:100E2000012006E0012004E0012002E0012000E0B2
:100E3000002003B0F0BD0120FBE70120F9E701200D
:100E4000F7E700BF001002408C809DF9FCFFEEFE2A
:100E5000002800F0AF8070B50D460446594B1B6862
:100E600003F007038B420BD2564A136823F00703A3
:100E70000B431360136803F007038B4240F09C8020
:100E8000236813F0020F0CD0A2684F4B9B6803F04D
:100E9000F0039A4205D94C498B6823F0F0031A43BA
:100EA0008A60236813F0010F39D06368032B09D0DF
:100EB000022B26D063BB444A126812F0020F06D1FF
:100EC000012076E0404A126812F0007F76D03E4959
:100ED0008A6822F0030213438B60FFF703FC064687
:100EE000394B9B6803F00C036268B3EB820F16D09A
:100EF000FFF7F8FB801B41F288339842F0D90320BA
:100F000057E0314A126812F4003FE0D1012050E06E
:100F10002D4A126812F4806FD9D1012049E023686C
:100F200013F0020F0CD0A268274B9B6803F0F0036C
:100F30009A4205D224498B6823F0F0031A438A6051
:100F4000204B1B6803F00703AB420AD91D4A136804
:100F500023F007032B431360136803F00703AB422E
:100F60002ED1236813F0040F06D0174A936823F498
:100F7000E063E1680B439360236813F0080F07D028
:100F8000114A936823F46053216943EAC1039360D3
:100F9000FFF7F6FB0C4B9B68C3F303130B4AD35CC0
:100FA00003F01F03D8400A4B18600A4B1868FFF77C
:100FB00033FB70BD012070470120FAE70120F8E7FC
:100FC0000120F6E70020024000100240985000087F
:100FD0000800002004000020014B1868704700BF83
:100FE0000800002008B5FFF7F7FF054B9B68C3F327
:100FF0000223044AD35C03F01F03D84008BD00BF9E
:10100000001002409050000808B5FFF7E5FF054BBF
:101010009B68C3F3C223044AD35C03F01F03D84088
:1010200008BD00BF00100240905000080F2303606D
:101030000B4B9A6802F0030242609A6802F0F002D9
:1010400082609A6802F4E062C2609B68DB0803F485
:10105000E0630361034B1B6803F007030B607047F9
:101060000010024000200240F8B504460D46594BDE
:10107000DB6813F0030F17D0564BDB6803F0030354
:101080000268934201D0012616E0002A00F09F80FA
:10109000504BDB68C3F3021301334268934201D023
:1010A000012609E000261BE00368022B58D0032B21
:1010B0005DD0012B02D001263046F8BD454A1268AA
:1010C00012F0020F5FD04348C26822F073026168D9
:1010D000013943EA01131343C3600026002EEBD10C
:1010E0003C4A136823F080631360FFF7FBFA07465E
:1010F000384B1B6813F0006F05D0FFF7F3FAC31BE2
:10110000022BF5D90326002ED6D1002D3DD1314931
:101110000B6923F41F3323F44073A068E2681209BB
:10112000520442EA002213430B612A4A136843F037
:1011300080631360FFF7D6FA0546264B1B6813F051
:10114000006F05D1FFF7CEFA401B0228F5D9032620
:10115000002EB1D11F4A1369A1690B431361ABE79C
:101160001C4A126812F4806FADD10126A4E7194A17
:10117000126812F4003FA6D1164A126812F4802FAA
:10118000A1D1012698E70126A8E7012D0FD011482B
:10119000026922F0C06222F4FE42A16863695B0822
:1011A000013B5B0643EA01231A430261BDE709489C
:1011B000026922F4C00222F4FE42A16823695B089E
:1011C000013B5B0543EA01231A430261ADE70126B7
:1011D00072E700BF00100240F8B504460D46504BC0
:1011E000DB6813F0030F17D04D4BDB6803F00303EC
:1011F0000268934201D0012616E0002A00F08D809B
:10120000474BDB68C3F3021301334268934201D0BA
:10121000012609E000261BE00368022B58D0032BAF
:101220005DD0012B02D001263046F8BD3C4A126841
:1012300012F0020F5FD03A48C26822F07302616870
:10124000013943EA01131343C3600026002EEBD19A
:10125000334A136823F080531360FFF743FA0746BD
:101260002F4B1B6813F0005F05D0FFF73BFAC31B41
:10127000022BF5D90326002ED6D1002D3DD12849C9
:101280004B6923F41F3323F44073A068E26812090A
:10129000520442EA002213434B61214A136843F08F
:1012A00080531360FFF71EFA05461D4B1B6813F0B1
:1012B000005F05D1FFF716FA401B0228F5D9032677
:1012C000002EB1D1164A536961690B435361ABE7F4
:1012D000134A126812F4806FADD10126A4E7104AB8
:1012E000126812F4003FA6D10D4A126812F4802F42
:1012F000A1D1012698E70126A8E70948426922F012
:10130000C06222F4FE42A16823695B08013B5B06D0
:1013100043EA01231A434261BFE7012684E700BF85
:10132000001002402DE9F04182B00446036813F436
:10133000006F33D0436EB3F5000F1FD00CD823B32A
:10134000B3F5800F05D100212030FFF745FF064699
:1013500020E001273E4623E0B3F5400F0BD10026E5
:10136000604AD2F8883023F44003616E0B43C2F820
:101370008830002714E001273E4611E0594AD3681F
:1013800043F48033D3600026EAE700210430FFF7FE
:101390006BFE0646002EE3D0374601E000273E46AE
:1013A000236813F4805F30D0A36EB3F1007F1FD0A9
:1013B0000DD81BB3B3F1807F06D1002104F12000CA
:1013C000FFF70AFF064605E001273E461DE0B3F1A0
:1013D000407F0AD1C6B9434AD2F8883023F040731F
:1013E000A16E0B43C2F888300FE001273E460CE0A7
:1013F0003C4AD36843F48033D360EBE70021201DDF
:10140000FFF732FE0646E5E73746236813F4003F50
:1014100071D0344B9B6D13F0805F4ED1314B9A6D80
:1014200042F080529A659B6D03F080530193019BBB
:101430004FF001082C4A136843F480731360FFF7E0
:1014400051F90546284B1B6813F4807F05D1FFF73F
:1014500049F9401B0228F5D90326002E46D1214B1D
:10146000D3F8903013F4407316D0D4F884209A4205
:1014700012D01C4AD2F8903023F44073D2F8901066
:1014800041F48031C2F89010D2F8901021F48031EC
:10149000C2F89010C2F8903013F0010F10D1002E56
:1014A00040F027810F4AD2F8903023F44073D4F8EB
:1014B00084100B43C2F8903019E04FF00008B9E7F0
:1014C000FFF710F90546074BD3F8903013F0020FE1
:1014D000E5D1FFF707F9401B41F288339842F2D972
:1014E0000326DCE700100240007000403746B8F1E8
:1014F000000F40F00081236813F0010F08D09D4ACF
:10150000D2F8883023F00303A16B0B43C2F8883074
:10151000236813F0020F08D0964AD2F8883023F0DF
:101520000C03E16B0B43C2F88830236813F0040FFF
:1015300008D0904AD2F8883023F03003216C0B4356
:10154000C2F88830236813F0080F08D0894AD2F80F
:10155000883023F0C003616C0B43C2F888302368E5
:1015600013F0100F08D0834AD2F8883023F4407368
:10157000A16C0B43C2F88830236813F0200F08D009
:101580007C4AD2F8883023F44063E16C0B43C2F804
:101590008830236813F4007F08D0764AD2F8883068
:1015A00023F44023E16D0B43C2F88830236813F421
:1015B000806F08D06F4AD2F8883023F44013216E30
:1015C0000B43C2F88830236813F0400F08D0694AF3
:1015D000D2F8883023F44053216D0B43C2F8883091
:1015E000236813F0800F08D0624AD2F8883023F4C1
:1015F0004043616D0B43C2F88830236813F4807F49
:1016000008D05C4AD2F8883023F44033A16D0B43F4
:10161000C2F88830236813F4005F0FD0554AD2F81F
:10162000883023F04063E16E0B43C2F88830E36EEC
:10163000B3F1006F65D0B3F1806F67D0236813F406
:10164000002F0FD04B4AD2F8883023F04063216F2F
:101650000B43C2F88830236FB3F1006F5ED0B3F153
:10166000806F60D0236813F4802F0FD0414AD2F8E6
:10167000883023F04063616F0B43C2F88830636F9A
:10168000B3F1006F57D0B3F1806F59D0236813F4D2
:10169000804F0FD0374AD2F8883023F04053A16FE3
:1016A0000B43C2F88830A36FB3F1805F50D0B3F121
:1016B000005F55D0236813F4004F08D02D4AD2F8AC
:1016C000883023F08043E16F0B43C2F888302368F1
:1016D00013F4803F09D0274AD2F8883023F0004322
:1016E000D4F880100B43C2F88830384602B0BDE809
:1016F000F0813746FBE61F4A936D23F080539365D4
:10170000F9E6D36843F48013D36097E70121201DE5
:10171000FFF7AAFC002891D007468FE7D36843F46F
:101720008013D3609EE70121201DFFF79DFC002858
:1017300098D0074696E7D36843F48013D360A5E7B3
:101740000121201DFFF790FC00289FD007469DE750
:101750000221201DFFF788FC0028ABD00746A9E72F
:10176000022104F12000FFF737FD0028A2D0074630
:10177000A0E700BF00100240F0B583B000236BE08B
:1017800085685E000324B44025EA0405CC68B440B3
:101790002C438460456825EA0C054C68C4F30014AA
:1017A0009C402C43446069E0C56A25EA0C05C4F3FB
:1017B000C0049C402C43C46266E0DD08083550F844
:1017C000254003F0070C4FEA8C0C4FF00F0E0EFA79
:1017D0000CFE24EA0E0E0C6904FA0CF444EA0E0422
:1017E00040F8254067E0062400E0002404FA0EF4E7
:1017F0002C430CF1020C5C4D45F82C405B4CA56869
:10180000D44325EA02064F6817F4801F01D042EA4C
:101810000506564DAE60ED6804EA05064F6817F4FC
:10182000001F01D042EA0506504DEE606D6804EAE3
:1018300005064F6817F4003F01D042EA05064B4DFC
:101840006E602D682C404E6816F4803F01D042EA4D
:101850000504464A146001330A6832FA03F400F0C2
:1018600081804FF0010C0CFA03FC1CEA0202F2D05A
:101870004C6804F00304013C012C81D94C6804F04D
:10188000030EBEF1030F8FD04C6804F00304032C49
:101890000CD0C4685D004FF0030C0CFA05FC24EA80
:1018A0000C0C8C68AC4044EA0C04C4604C6804F036
:1018B0000304022C81D004684FEA430E4FF0030C5E
:1018C0000CFA0EFC24EA0C0C4C6804F0030404FA35
:1018D0000EF444EA0C0404604C6814F4403FBAD09F
:1018E000234C256E45F001052566246E04F00104A5
:1018F0000194019C4FEA930C0CF102051A4C54F828
:10190000255003F0030E4FEA8E0E0F2404FA0EF456
:1019100025EA0405B0F1904F3FF467AF154CA042A3
:1019200016D004F58064A04214D004F58064A0426F
:1019300012D004F58064A04210D004F58064A04267
:101940000ED004F58064A0423FF44DAF07244DE76C
:1019500001244BE7022449E7032447E7042445E731
:10196000052443E703B0F0BD00000140000401403E
:1019700000100240000400480369194201D0012010
:101980007047002070470AB18161704781627047DB
:10199000436901EA030221EA030141EA024181614C
:1019A00070470000024B186800F4C060704700BF29
:1019B00000700040B0F5007F0FD01F4B1B6803F490
:1019C000C063B3F5806F34D01B4A136823F4C0633F
:1019D00043F48063136000207047174B1B6803F4C7
:1019E000C063B3F5007F20D0134A136823F4C063AB
:1019F00043F400731360114B1B68322202FB03F3A4
:101A00000F4AA2FB03239B0C013300E0013B0A4A6F
:101A1000526912F4806F01D0002BF7D1064B5B693D
:101A200013F4806F03D1002070470020704703201B
:101A300070470020704700BF007000400800002081
:101A400083DE1B43002807DB00F01F02400901234F
:101A50009340024A42F82030704700BF00E100E0A6
:101A6000002808DB0901C9B200F1604000F56140BF
:101A700080F80013704700F00F000901C9B2014B54
:101A80001954704714ED00E000B500F00700C0F1F4
:101A9000070CBCF1040F28BF4FF0040C031D062BEC
:101AA0000FD9C31E4FF0FF3E0EFA0CF021EA0001E1
:101AB00099400EFA03FE22EA0E0241EA02005DF8A6
:101AC00004FB0023EEE70000074AD36823F4E06339
:101AD0001B041B0C000200F4E060034343F0BF63EF
:101AE00043F40033D360704700ED00E010B50446C6
:101AF000054BD868C0F30220FFF7C6FF0146204619
:101B0000FFF7AEFF10BD00BF00ED00E008B5FFF726
:101B100099FF08BD7047000090F83D30DBB2012B03
:101B200036D1022380F83D300268D36843F00103C8
:101B3000D3600368194A93421CD0B3F1804F19D087
:101B4000A2F59432934215D002F58062934211D0EF
:101B500002F5806293420DD002F59432934209D08F
:101B600002F54062934205D01A6842F001021A6001
:101B70000020704799680A4A0A40062A0AD0B2F53E
:101B8000803F09D01A6842F001021A6000207047B5
:101B9000012070470020704700207047002C014052
:101BA00007000100704770477047704770B50446E2
:101BB0000368DE681D6915F0020F10D016F0020FE1
:101BC0000DD06FF002021A610123037703689B694D
:101BD00013F0030F64D0FFF7E6FF0023237715F01F
:101BE000040F12D016F0040F0FD023686FF0040218
:101BF0001A610223237723689B6913F4407F55D031
:101C00002046FFF7D0FF0023237715F0080F12D0EE
:101C100016F0080F0FD023686FF008021A61042332
:101C200023772368DB6913F0030F46D02046FFF7C4
:101C3000BAFF0023237715F0100F12D016F0100F03
:101C40000FD023686FF010021A61082323772368EE
:101C5000DB6913F4407F37D02046FFF7A4FF002351
:101C6000237715F0010F02D016F0010F33D115F0D4
:101C7000800F02D016F0800F35D115F4807F02D08E
:101C800016F0800F37D115F0400F02D016F0400F3C
:101C900039D115F0200F02D016F0200F3BD170BDC6
:101CA000FFF780FF2046FFF77FFF96E72046FFF70C
:101CB00079FF2046FFF778FFA5E72046FFF772FF80
:101CC0002046FFF771FFB4E72046FFF76BFF204681
:101CD000FFF76AFFC3E723686FF001021A6120462D
:101CE000FEF75AFBC3E723686FF080021A612046B3
:101CF00000F0AFF8C1E723686FF480721A612046E4
:101D000000F0A8F8BFE723686FF040021A61204690
:101D1000FFF74BFFBDE723686FF020021A612046F2
:101D200000F096F8BBE700000368304A904212D0FA
:101D3000B0F1804F0FD0A2F5943290420BD002F553
:101D40008062904207D002F58062904203D002F593
:101D50009432904203D123F070034A681343234A1C
:101D600090421ED0B0F1804F1BD0A2F59432904229
:101D700017D002F58062904213D002F58062904243
:101D80000FD002F5943290420BD002F5406290429F
:101D900007D002F58062904203D002F58062904243
:101DA00003D123F44073CA68134323F080034A69C4
:101DB000134303608B68C3620B6883620B4B9842CA
:101DC0000FD003F5006398420BD003F540639842AF
:101DD00007D003F58063984203D003F580639842EF
:101DE00001D10B690363012343617047002C01405B
:101DF00060B310B5044690F83D3013B3022384F865
:101E00003D30214651F8040BFFF78EFF012384F883
:101E1000483084F83E3084F83F3084F8403084F80D
:101E2000413084F8423084F8433084F8443084F8F8
:101E3000453084F8463084F8473084F83D3000203F
:101E400010BD80F83C30FFF765FED7E701207047F2
:101E50007047704770470000034AD2F8883043F457
:101E60007003C2F88830704700ED00E000F108030D
:101E700043604FF0FF328260C36003610023036060
:101E8000704700230361704743684B609A688A601B
:101E9000516099600861036801330360704730B492
:101EA0000D68B5F1FF3F11D000F108031C465B68D7
:101EB0001A68AA42FAD963684B6099608C606160C5
:101EC000086103680133036030BC70470469F2E7BE
:101ED0000369416882688A60416851605A68824239
:101EE00006D0002202611A68013A1A601868704729
:101EF00082685A60F5E710B5044601F0B3FCA26BA6
:101F0000E36B9A4204D0002401F0CEFC204610BDC1
:101F10000124F9E710B5044601F0A4FCA36B23B932
:101F2000012401F0C1FC204610BD0024F9E770B582
:101F300004461546866B026C5AB903681BB1002033
:101F40000136A66370BD806800F0D0FF0023A36057
:101F5000F6E76DB9406802F0D1FE6368226C134465
:101F60006360A268934219D3236863602846E7E759
:101F7000C06802F0C3FEE368226C51429B1AE36022
:101F80002268934202D2A3680B44E360022D01D081
:101F90000020D5E726B1013E0020D1E72846CFE753
:101FA0000020CDE70346026C6AB110B50846D96837
:101FB0001144D9609C68A14201D31968D960D968DD
:101FC00002F09CFE10BD704738B5054601F04AFC92
:101FD00095F8454064B201E0013C64B2002C0ADD92
:101FE0006B6A43B105F1240000F0D6FE0028F3D05F
:101FF00000F066FFF0E7FF2385F8453001F054FC60
:1020000001F030FC95F8444064B201E0013C64B258
:10201000002C0ADD2B6943B105F1100000F0BCFE75
:102020000028F3D000F04CFFF0E7FF2385F84430A0
:1020300001F03AFC38BD38B5E0B10D46044601F078
:1020400011FC2368E26B216C01FB0230A0600020D0
:10205000A0636360013A02FB0133E360FF2384F86D
:10206000443084F84530FDB9236963B901F01CFCA4
:10207000012038BD4FF0500383F31188BFF36F8FF9
:10208000BFF34F8FFEE704F1100000F085FE00283B
:10209000ECD04FF0E0234FF08052C3F8042DBFF393
:1020A0004F8FBFF36F8FE1E704F11000FFF7DEFE03
:1020B00004F12400FFF7DAFED8E738B51D46049C8A
:1020C0000B4649B92460E063236401212046FFF7F1
:1020D000B2FF84F84C5038BD2260F4E740B94FF0AD
:1020E000500383F31188BFF36F8FBFF34F8FFEE769
:1020F00010B584B01C46844653B192B189B94FF0F3
:10210000500383F31188BFF36F8FBFF34F8FFEE748
:102110004FF0500383F31188BFF36F8FBFF34F8FDE
:10212000FEE76AB150230393039B502B13D04FF06B
:10213000500383F31188BFF36F8FBFF34F8FFEE718
:102140000029EFD04FF0500383F31188BFF36F8F56
:10215000BFF34F8FFEE7039B012384F846300094C2
:102160009DF818306046FFF7A8FF204604B010BD68
:10217000F0B585B0019288B10F461D460446B1B155
:10218000022D20D1E36B012B1DD04FF0500383F3C0
:102190001188BFF36F8FBFF34F8FFEE74FF05003EF
:1021A00083F31188BFF36F8FBFF34F8FFEE7036C8C
:1021B000002BE5D04FF0500383F31188BFF36F8FEE
:1021C000BFF34F8FFEE700F081FE064658B9019B32
:1021D000002B48D04FF0500383F31188BFF36F8F6B
:1021E000BFF34F8FFEE700263DE02A4639462046E2
:1021F000FFF79DFE636A7BB948B14FF0E0234FF0D3
:102200008052C3F8042DBFF34F8FBFF36F8F01F0DF
:102210004BFB012005B0F0BD04F1240000F0BCFD33
:102220000028F4D04FF0E0234FF08052C3F8042D83
:10223000BFF34F8FBFF36F8FE9E701F035FB00204D
:10224000E8E702A800F0EEFD012619E0002384F87B
:10225000443021E0002384F8453023E02046FFF796
:10226000B3FE00F077FC01F0FDFAA26BE36B9A423B
:10227000BBD3022DB9D0019B002BDED0002EE0D0C5
:1022800001F012FB00F0CCFB01F0ECFA94F84420D2
:1022900052B2B2F1FF3FD9D094F8452052B2B2F118
:1022A000FF3FD7D001F000FB01A902A800F0C6FD56
:1022B000D8B92046FFF71FFE0028CFD0019904F1BE
:1022C000100000F035FD2046FFF77EFE00F042FCD6
:1022D0000028C8D14FF0E0234FF08052C3F8042DFE
:1022E000BFF34F8FBFF36F8FBDE72046FFF76CFE44
:1022F00000F030FC00208DE72DE9F84390B10F4647
:1023000016461C460546B1B1022C20D1EB6B012BC1
:102310001DD04FF0500383F31188BFF36F8FBFF3CD
:102320004F8FFEE74FF0500383F31188BFF36F8F99
:10233000BFF34F8FFEE7036C002BE5D04FF0500347
:1023400083F31188BFF36F8FBFF34F8FFEE701F068
:10235000AFFBEFF311884FF0500383F31188BFF305
:102360006F8FBFF34F8FAA6BEB6B9A4206D3022C91
:1023700004D0002088F31188BDE8F88395F84590D3
:102380004FFA89F9AB6B224639462846FFF7CFFD55
:10239000B9F1FF3F06D009F101035BB285F8453082
:1023A0000120E7E76B6A0BB90120E3E705F12400A0
:1023B00000F0F2FC18B126B101203060DAE701200C
:1023C000D8E70120D6E7F0B585B0019290B10F466D
:1023D0000446C1B100F07AFD064600BB019B002B0C
:1023E0005ED04FF0500383F31188BFF36F8FBFF3BC
:1023F0004F8FFEE74FF0500383F31188BFF36F8FC9
:10240000BFF34F8FFEE7036C002BE3D04FF0500378
:1024100083F31188BFF36F8FBFF34F8FFEE7002662
:102420003EE039462046FFF7BDFD013DA563236927
:1024300023B901F039FA012005B0F0BD04F1100014
:1024400000F0AAFC0028F4D04FF0E0234FF08052B7
:10245000C3F8042DBFF34F8FBFF36F8FE9E701F08F
:1024600023FA0020E8E702A800F0DCFC012621E0C6
:10247000002384F8443029E0002384F845302BE021
:102480002046FFF7A1FD00F065FB09E02046FFF7BD
:102490009BFD00F05FFB2046FFF73CFD00283FD18D
:1024A00001F0E0F9A56B002DBBD1019B002BD6D02C
:1024B000002ED8D001F0F8F900F0B2FA01F0D2F90C
:1024C00094F844305BB2B3F1FF3FD1D094F845307B
:1024D0005BB2B3F1FF3FCFD001F0E6F901A902A84A
:1024E00000F0ACFC0028D1D12046FFF713FD0028F6
:1024F000C6D0019904F1240000F01AFC2046FFF731
:1025000063FD00F027FB0028CAD14FF0E0234FF015
:102510008052C3F8042DBFF34F8FBFF36F8FBFE717
:10252000002089E70023072B0CD8074A52F83320F4
:102530000AB10133F7E7044A42F8331002EBC30251
:1025400050607047704700BF8800002070B5044697
:102550000D46164601F086F994F844305BB2B3F1AB
:10256000FF3F0DD094F845305BB2B3F1FF3F0BD085
:1025700001F09AF9A36B5BB12046FFF725FD70BD12
:10258000002384F84430EDE7002384F84530EFE77A
:102590003246294604F1240000F0E2FBECE700009B
:1025A000084B1B681B6823B9074B4FF0FF321A60BA
:1025B0007047044B1B68DB68DB685A68024B1A6083
:1025C000704700BF38010020D00000202DE9F047FF
:1025D00080460D4617469946089EDDF824A00A9CC1
:1025E0009200A521206B02F05CFB236B07F1804277
:1025F000013A03EB820727F00707A5B34FF0000C61
:10260000BCF10F0F09D815F80C3004EB0C0282F85E
:10261000343013B10CF1010CF2E7002384F843309D
:10262000372E00D93726E662E66400252565201D91
:10263000FFF727FC04F11800FFF723FC2461C6F123
:102640003806A6616462656584F858504A4641467A
:10265000384601F0DFF82060BAF1000F01D0CAF867
:102660000040BDE8F087002384F83430D8E700004C
:1026700038B5002407E004EB840293000E481844A8
:10268000FFF7F4FB0134372CF5D90C4D2846FFF742
:10269000EDFB0B4C2046FFF7E9FB0A48FFF7E6FB92
:1026A0000948FFF7E3FB0948FFF7E0FB084B1D6013
:1026B000084B1C6038BD00BF6401002050010020A1
:1026C0003C010020200100200C010020F40000202B
:1026D000380100203401002010B5044601F0C2F892
:1026E000224A136801331360214B1B685BB1214BF5
:1026F0001B686BB91E4B1B68DA6AE36A9A4207D8FB
:102700001B4B1C6004E01A4B1C601368012B29D082
:10271000194A1368013313606364E06A174B1B683E
:10272000984201D9154B186000EB8000211D144B15
:1027300003EB8000FFF7A8FB01F0B6F80D4B1B6818
:102740007BB10B4B1B68DA6AE36A9A4209D24FF0FD
:10275000E0234FF08052C3F8042DBFF34F8FBFF337
:102760006F8F10BDFFF784FFD2E700BFF00000209D
:10277000C4050020E4000020D4000020E800002070
:102780006401002010B5044690F8593063B1012B64
:1027900011D0022B0ED04FF0500383F31188BFF3FA
:1027A0006F8FBFF34F8FFEE7006B00F0B7FF20463F
:1027B00000F0B4FF10BD00F0B1FFFBE70F4B1B684A
:1027C000D3B110B501F04EF80D4BDB68DC68201D6D
:1027D000FFF77EFB0B4A1368013B1360074A13683F
:1027E000013B136001F060F82046FFF7CBFF034B7D
:1027F0001B68002BE6D110BD704700BF0801002008
:102800000C010020F000002008B5FFF7D7FF074BB0
:102810001B68012BF9D94FF0E0234FF08052C3F829
:10282000042DBFF34F8FBFF36F8FEEE764010020DD
:1028300070B504460D46174B1E68174B18680430D8
:10284000FFF746FBB4F1FF3F0DD03444124B1B6839
:102850005C60A64210D9114B18680F4B19680431FF
:10286000FFF71DFB70BD002DEFD00B4B1968043135
:102870000B48FFF709FBF5E70A4B1868064B196888
:102880000431FFF70CFB084B1B68A342EAD9064B47
:102890001C60E7E7EC000020C405002034010020A4
:1028A000F400002038010020D000002030B587B0AF
:1028B0000B9C7CB10C9DB5B15C250495049D5C2DF1
:1028C0001AD04FF0500383F31188BFF36F8FBFF31B
:1028D0004F8FFEE74FF0500383F31188BFF36F8FE4
:1028E000BFF34F8FFEE74FF0500383F31188BFF320
:1028F0006F8FBFF34F8FFEE7049D0C9D2C63022466
:1029000085F8594000240394029505AC01940A9C73
:102910000094FFF75BFE0C98FFF7DEFE059807B00A
:1029200030BD2DE9F04385B00746884614461E4663
:10293000900000F071FE08B381465C2000F06CFE50
:102940000546A8B1C0F83090002380F859300393B1
:1029500002900D9B01930C9B009333462246414607
:102960003846FFF733FE2846FFF7B6FE012007E0A2
:10297000484600F0D3FE4FF0FF3001E04FF0FF304B
:1029800005B0BDE8F083000010B588B000240594C0
:10299000069407AA06A905A800F0C0FD059B0293AE
:1029A000069B019300942346079A17491748FFF79F
:1029B0007DFF174B1860C0B100F04CFB012815D10A
:1029C0004FF0500383F31188BFF36F8FBFF34F8F26
:1029D000104B4FF0FF321A600F4B01221A600F4B61
:1029E00000221A6000F0D8FF03E00020B0F1FF3FA2
:1029F00001D008B010BD4FF0500383F31188BFF32E
:102A00006F8FBFF34F8FFEE7A8500008092800081A
:102A1000CC000020D0000020E4000020EC000020CA
:102A2000024A136801331360704700BFC8000020DA
:102A3000014B1868704700BFEC000020F8B53A4B16
:102A40001B68002B69D1394B1D6801351D60C5B964
:102A5000374B1B681B6843B14FF0500383F3118859
:102A6000BFF36F8FBFF34F8FFEE7314A1168314BD1
:102A7000186810601960304A136801331360FFF75B
:102A80008FFD2E4B1B68AB423DD900272C4B1B689A
:102A9000DB6A03EB83039A002A4B9B58012B00D976
:102AA0000127294B1B68002B3CD001273AE0012766
:102AB0001F4B1B681B6843B31D4B1B68DB68DC683E
:102AC00063689D4226D3261D3046FFF701FAA36AAC
:102AD0001BB104F11800FFF7FBF9E36A1B4A126807
:102AE000934201D9194A136003EB83039A003146DC
:102AF00014481044FFF7C8F9E26A114B1B68DB6AFF
:102B00009A42D4D2D4E70027D2E70C4B4FF0FF32E1
:102B10001A60BBE7094A1360B8E70D4A136801332E
:102B2000136000273846F8BDC8000020EC000020E4
:102B30003801002034010020D8000020D0000020FF
:102B4000C405002064010020DC000020E800002013
:102B5000E000002038B5354B1B6843B94FF05003F7
:102B600083F31188BFF36F8FBFF34F8FFEE700F041
:102B700079FE2E4B1A68013A1A601B68002B4FD160
:102B80002B4B1B680BB900244BE00024294B1B681E
:102B90001BB3284BDB68DC6804F11800FFF798F9D9
:102BA000251D2846FFF794F9E06A234B1B689842DD
:102BB00001D9214B186000EB800029461F4B03EB25
:102BC0008000FFF761F9E26A1D4B1B68DB6A9A42DD
:102BD000DCD31C4B01221A60D8E70CB1FFF7E0FCF4
:102BE000194B1C6884B9174B1C68D4B14FF0E02313
:102BF0004FF08052C3F8042DBFF34F8FBFF36F8F98
:102C000001240EE0013C07D0FFF718FF0028F9D09F
:102C10000C4B01221A60F5E70B4B00221A60E2E729
:102C2000002400F041FE204638BD00BFC80000204F
:102C3000F000002020010020E800002064010020B6
:102C4000C4050020DC000020E000002010B5A8B181
:102C50000446104B1B6843B14FF0500383F31188B7
:102C6000BFF36F8FBFF34F8FFEE7FFF7D9FE002151
:102C70002046FFF7DDFDFFF76DFF48B94FF0E02379
:102C80004FF08052C3F8042DBFF34F8FBFF36F8F07
:102C900010BD00BFC8000020204B1B681BB1204B9B
:102CA00001221A6070471E4B00221A601D4B1B68E0
:102CB00003EB83018A001C498A585AB90BB1013BC6
:102CC000F6E74FF0500383F31188BFF36F8FBFF324
:102CD0004F8FFEE7084603EB83018A0002445168E8
:102CE0004968516003EB830C4FEA8C0208320244BE
:102CF00091420BD003EB830291000B4A0A445268C5
:102D0000D1680A4A1160074A1360704748686246F2
:102D10009100054A0A445060ECE700BFC80000205B
:102D2000DC000020E800002064010020C405002031
:102D300058B110B50C46094A11681831FFF7AFF8C1
:102D400001212046FFF774FD10BD4FF0500383F3BF
:102D50001188BFF36F8FBFF34F8FFEE7C4050020CC
:102D600038B570B10D4614460A4A11681831FFF79C
:102D70008BF80CB14FF0FF3521462846FFF758FD80
:102D800038BD4FF0500383F31188BFF36F8FBFF34B
:102D90004F8FFEE7C405002038B5C368DC6824B354
:102DA00004F118052846FFF793F8184B1B682BBB56
:102DB000251D2846FFF78CF8E06A154B1B689842E2
:102DC00001D9134B186000EB80002946114B03EB2F
:102DD0008000FFF759F8E26A0F4B1B68DB6A9A42E2
:102DE00011D901200D4B186038BD4FF0500383F30B
:102DF0001188BFF36F8FBFF34F8FFEE72946084856
:102E0000FFF742F8E7E70020EEE700BFC800002028
:102E1000E800002064010020C4050020DC00002040
:102E200020010020034B1B680360034B1B684360B9
:102E3000704700BFD8000020EC000020F8B5C8B1F2
:102E40000C460546F9B100F00DFD1B4B19686B6887
:102E5000C81A2268B2F1FF3F26D0184E36682F6894
:102E6000B74201D08B4224D9824215D80023236077
:102E700001241AE04FF0500383F31188BFF36F8FE2
:102E8000BFF34F8FFEE74FF0500383F31188BFF37A
:102E90006F8FBFF34F8FFEE75B1A13442360284602
:102EA000FFF7C0FF002400E0002400F0FDFC2046F6
:102EB000F8BD0124F9E700BFEC000020D800002095
:102EC000014B01221A607047DC000020054B1B6893
:102ED00033B1054B1B680BB10020704702207047CF
:102EE00001207047E4000020C800002000283BD0EB
:102EF00038B504461E4B1B68834208D04FF0500380
:102F000083F31188BFF36F8FBFF34F8FFEE7036D1D
:102F100043B94FF0500383F31188BFF36F8FBFF3B2
:102F20004F8FFEE7013B0365C16AC26C91421DD021
:102F30000BB1002038BD051D2846FEF7C9FFE06C27
:102F4000E062C0F13803A3610A4B1B68984201D9C3
:102F5000084B186000EB80002946074B03EB80000C
:102F6000FEF792FF0120E5E7002070470020E1E72F
:102F7000C4050020E800002064010020064B1A6808
:102F800013682BB90123036023B9D368186870470D
:102F90000023F8E700207047C806002008B541600C
:102FA000006191420CD8D21A83699A4201D3012060
:102FB00008BD011D094B1868FEF771FF0020F7E7F7
:102FC0009A4201D2994206D2011D054B1868FEF7BC
:102FD00066FF0020ECE70120EAE700BFC4060020FE
:102FE000C806002030B583B000F03CFC114B1B68D4
:102FF0001BB100F059FC03B030BD0F4D2846FEF761
:1030000035FF0E4C2046FEF731FF0D4B1D600D4B7A
:103010001C60002300930C4B0C4A10210A20FFF780
:103020005DF8044B18600028E3D00949FFF77AFAED
:10303000DFE700BFC0060020E0060020CC0600202D
:10304000C8060020C4060020C8050020180600207D
:10305000B050000810B588B0FFF7C4FF124B1B68D2
:10306000CBB100240594069407AA06A905A800F090
:1030700061FA059B0293069B01930223009323466A
:10308000079A0A490A48FFF711FC0A4B186010B169
:10309000012008B010BD4FF0500383F31188BFF337
:1030A0006F8FBFF34F8FFEE7C0060020B8500008B7
:1030B000B9330008BC060020B8B19C460346184846
:1030C000006858B300B585B00091019202930529BC
:1030D0001CDCFFF7FBFE022810D000231A466946CD
:1030E0000F480068FFF744F815E04FF0500383F3F2
:1030F0001188BFF36F8FBFF34F8FFEE70023069A4F
:10310000694607480068FFF733F804E00023624689
:103110006946FFF7F1F805B05DF804FB0020704741
:10312000C006002070B582B01B4B1B681A6862B3E2
:10313000DB681E68DC68251D2846FEF7C9FE236A89
:103140002046984794F8283013F0040FECD0A36978
:1031500033449E4207D26360246129460E4B1868AF
:10316000FEF79DFEE0E7002100910B463246204627
:10317000FFF7A2FF0028D7D14FF0500383F3118847
:10318000BFF36F8FBFF34F8FFEE7044A1068024909
:103190000860136002B070BDC8060020C40600209D
:1031A00038B50546FFF744FC0446074B1B688342CD
:1031B00005D800232B60044B1C60204638BDFFF768
:1031C000B1FF01232B60F6E7B806002070B582B08E
:1031D00006460D4617490968C968CC68201DFEF7E8
:1031E00077FE94F828C01CF0040F08D12CF0010CD5
:1031F00084F828C0236A2046984702B070BDA169B0
:1032000033462A4631442046FFF7C8FE0028F1D055
:10321000002100910B4632462046FFF74DFF002863
:10322000E8D14FF0500383F31188BFF36F8FBFF3E2
:103230004F8FFEE7C806002070B582B006460C46E8
:10324000FFF7EEFB01A8FFF7ABFF019B33BB054681
:10325000E4B9B04213D22246711B124B1868FFF733
:1032600075F9FFF777FCD8B94FF0E0234FF08052A3
:10327000C3F8042DBFF34F8FBFF36F8F10E0FFF73C
:1032800069FC29463046FFF7A1FF09E0064A1268AB
:1032900012680AB90124DEE71C46DCE7FFF75AFC96
:1032A00002B070BDC0060020C406002010B588B072
:1032B00002E0049B002B0FDA002204A93D4B1868A2
:1032C000FFF781F8002873D0049B002BF1DA0799EF
:1032D0000698059B9847ECE7069C636913B1201D8F
:1032E000FEF7F6FD03A8FFF75BFF049B092BE3D86D
:1032F000DFE803F00505053037500505303794F851
:10330000283043F0010384F82830059BA169024668
:1033100019442046FFF742FE0028CDD0236A2046FC
:10332000984794F8283013F0040FC5D0A269002103
:1033300000910B46059802442046FFF7BDFE002889
:10334000BAD14FF0500383F31188BFF36F8FBFF3EF
:103350004F8FFEE794F8283023F0010384F82830DB
:10336000AAE794F8283043F0010384F8283005993F
:10337000A16131B10346024601442046FFF70EFE2B
:103380009AE74FF0500383F31188BFF36F8FBFF3B9
:103390004F8FFEE794F8283013F0020F04D023F08B
:1033A000010384F8283087E7204600F0B7F983E767
:1033B00008B010BDC006002000B583B001A8FFF71B
:1033C000DDFD0199FFF738FFFFF770FFF6E708B55D
:1033D0004FF0E0231B69FFF779FD012800D108BDFC
:1033E00000F0B0FAFBE70000EFF305832BB9064BC2
:1033F000186828B901221A6070476FF005007047FD
:103400004FF0FF30704700BFAC0D0020EFF3058395
:1034100073B90A4B1B68012B0DD110B50024084B62
:10342000DC77064B02221A60FFF7AEFA204610BD89
:103430006FF0050070474FF0FF307047AC0D002073
:1034400000ED00E0F0B587B000240594EFF30584AB
:1034500074BB68B322B31568936903B918235C1E63
:10346000372C49D8546814F0010F47D156696EB112
:103470004FEA960C94682CB1D7685B2F02D9176974
:1034800007B1C6B92CB14FF0FF340EE04FF0800CFD
:10349000F0E7D4688CB9146994B14FF0FF3404E0BC
:1034A0001546002418234FF0800C012C0AD0ACB133
:1034B000059807B0F0BD0124F7E74FF0FF34F4E7BB
:1034C0000024F2E7146992680292019400930B467B
:1034D00062462946FFF7EAF90590E9E705AA019255
:1034E00000930B461FFA8CF22946FFF71AFA0128BF
:1034F000DED000230593DBE70020DAE70020D8E7E1
:1035000008B5EFF3058333B908B9002008BDFFF70C
:103510009DFB0020FAE76FF00500F7E7034B03601F
:10352000034B0B6080231360704700BF500D0020D9
:10353000500B0020034B0360034B0B604FF4807370
:1035400013607047F40A0020F4060020134A12F0BA
:10355000070F1FD0D11D21F00701C1F53B630833D0
:1035600013440A460E480260002141601344083BA0
:1035700023F007030B48036059601960991A5160E2
:103580001360094B1960094B1960094B4FF0004259
:103590001A60704740F6B833E4E700BFD00D002052
:1035A000C80D0020C40D0020BC0D0020C00D00205F
:1035B000B00D0020164B1A461B688342FBD351689E
:1035C00002EB010C844509D0416800EB010C634516
:1035D00009D00360904219D01060704740680144E0
:1035E00051601046F0E710B40A4C2468A3420BD097
:1035F0005B681944416013681B680360904200D007
:1036000010605DF8044B70470460F7E7704700BF37
:10361000C80D0020C40D002038B50446FFF700FA9D
:10362000384B1B68B3B1384B1B681C4250D1002C7F
:1036300050D004F1080214F0070F02D022F0070264
:103640000832002A55D0314B1B68934253D330497E
:103650000C6804E0FFF77AFFE5E721461C46636843
:10366000934202D22368002BF7D1264B1B68A3425A
:1036700043D00D68083523680B6063689B1A102BD4
:1036800010D9A01810F0070F08D04FF0500383F3A3
:103690001188BFF36F8FBFF34F8FFEE74360626007
:1036A000FFF788FF626819490B689B1A0B6019497C
:1036B00009688B4201D217490B60134B1B681343F7
:1036C000636000232360144A13680133136002E02F
:1036D000002500E00025FFF73DFA15F0070F0ED09A
:1036E0004FF0500383F31188BFF36F8FBFF34F8FF9
:1036F000FEE70025EFE70025EDE70025EBE728468C
:1037000038BD00BFC40D0020B00D0020C00D00204A
:10371000C80D0020BC0D0020B80D0020002834D0BA
:1037200038B50446A0F1080550F8043C174A126861
:10373000134208D14FF0500383F31188BFF36F8F0A
:10374000BFF34F8FFEE750F8081C41B14FF0500314
:1037500083F31188BFF36F8FBFF34F8FFEE723EA28
:10376000020340F8043CFFF75BF954F8041C084AD4
:1037700013680B4413602846FFF71CFF054A1368C3
:1037800001331360FFF7E6F938BD7047B00D002034
:10379000C00D0020B40D002082B0002301930D4B1A
:1037A0001B68B3F1FF3F08D04FF0500383F311883B
:1037B000BFF36F8FBFF34F8FFEE74FF0500383F3DC
:1037C0001188BFF36F8FBFF34F8F019B002BFCD08D
:1037D00002B070470C00002008480068006880F3C1
:1037E00008884FF0000080F3148862B661B6BFF31A
:1037F0004F8FBFF36F8F00DF00BF000008ED00E0C8
:10380000DFF80C00016841F47001016070470000AE
:1038100088ED00E04FF0807340F8043C21F0010196
:1038200040F8081C054B40F80C3C40F8202C6FF089
:10383000020340F8243C4438704700BF9937000821
:10384000074B19680868B0E8F04F80F30988BFF3A8
:103850006F8F4FF0000080F311887047AFF3008046
:10386000C40500204FF0500383F31188BFF36F8F1E
:10387000BFF34F8F0B4A136801331360012B00D045
:1038800070474FF0E023D3F8043D13F0FF0FF7D05B
:103890004FF0500383F31188BFF36F8FBFF34F8F47
:1038A000FEE700BF0C000020094B1B6843B94FF036
:1038B000500383F31188BFF36F8FBFF34F8FFEE781
:1038C000013B034A13600BB983F31188704700BFB3
:1038D0000C000020000000000000000000000000BC
:1038E000EFF30980BFF36F8F154B1A681EF0100FAE
:1038F00008BF20ED108A20E9F04F10602DE9090083
:103900004FF0500080F31188BFF34F8FBFF36F8FDC
:10391000FFF7C2F94FF0000080F3118809BC196865
:103920000868B0E8F04F1EF0100F08BFB0EC108A26
:1039300080F30988BFF36F8F704700BFAFF300803B
:10394000C405002008B54FF0500383F31188BFF37E
:103950006F8FBFF34F8FFFF771F828B14FF0E0235F
:103960004FF08052C3F8042D002383F3118808BD63
:103970004FF0E022002313619361054B1B6805495A
:10398000A1FB03139B09013B53610723136170479C
:1039900008000020D34D62104FF0E023D3F8002D33
:1039A0003D4B9A421CD04FF0E023D3F8002D3B4B07
:1039B0009A421ED030B583B0394B1A78D2B20192F8
:1039C000FF221A701B78DBB28DF803309DF80330AC
:1039D00003F05003334A1370334B07221A601BE085
:1039E0004FF0500383F31188BFF36F8FBFF34F8FF6
:1039F000FEE74FF0500383F31188BFF36F8FBFF3DF
:103A00004F8FFEE7284A1368013B13609DF803308F
:103A10005B00DBB28DF803309DF8033013F0800FAC
:103A2000F0D1214B1B68032B08D04FF0500383F3D8
:103A30001188BFF36F8FBFF34F8FFEE71B021A4A47
:103A4000136003F4E0631360019BDBB2144A13704C
:103A50004FF0E024D4F8203D43F47003C4F8203D37
:103A6000D4F8203D43F07043C4F8203DFFF780FFB9
:103A700000250E4B1D60FFF7C3FED4F8343F43F022
:103A80004043C4F8343FFFF7A7FEFFF705F9FFF7FF
:103A900083FE284603B030BD71C20F4170C20F4192
:103AA00000E400E08C190020881900200C000020A0
:103AB000EFF305830F2B0FD9114A9B5CDBB2114A40
:103AC00012789A4208D94FF0500383F31188BFF35C
:103AD0006F8FBFF34F8FFEE74FF0E023D3F80C3D1D
:103AE00003F4E063084A1268934208D94FF0500388
:103AF00083F31188BFF36F8FBFF34F8FFEE77047DB
:103B0000F0E300E08C1900208819002000B58BB08C
:103B1000002307930893099301930293039304935B
:103B2000059306931E481F4A026043608360C3608A
:103B3000036104224261037643760122C26180F868
:103B400020308362C36280F83030436380F83830BD
:103B500000F000F9D0B90023079307A9104800F03E
:103B600015FCB0B9104B0193062302930023039375
:103B70007F2204920422059206930DEB020108486D
:103B800000F0E4F940B90BB05DF804FBFCF710FC61
:103B9000E1E7FCF70DFCE5E7FCF70AFCF3E700BF03
:103BA000F8190020000004500200300400B587B06E
:103BB0000023009301930293039304930593194800
:103BC000194A026043608360C3600361042242615A
:103BD000037643760122C26180F820308362C3629B
:103BE00080F83030436380F8383000F0B3F890B993
:103BF0000E4B009306230193002302937F2203922E
:103C00000422049205936946064800F09FF928B9FA
:103C100007B05DF804FBFCF7CBFBE9E7FCF7C8FB5A
:103C2000F6E700BF9419002000010450040060086A
:103C300000B58BB00023059306930793089309936F
:103C40000368284A934205D0274A934226D00BB0F6
:103C50005DF804FB254A136801331360012B12D071
:103C6000234BDA6C42F00402DA64DB6C03F00403E9
:103C70000293029B012305930B23069305A91D487C
:103C8000FDF77AFDE3E71A4BDA6C42F40052DA648E
:103C9000DB6C03F400530193019BE1E7134A1368C3
:103CA00001331360012B12D0114BDA6C42F0040285
:103CB000DA64DB6C03F004030493049B0223059392
:103CC0000B23069305A90B48FDF756FDBFE7084BEC
:103CD000DA6C42F40052DA64DB6C03F400530393B1
:103CE000039BE1E7000004500001045090190020FC
:103CF000001002400008004810B430300B0A9B004E
:103D000003F00C03C45801F01F014FF01F0C0CFA14
:103D100001FC24EA0C0CC2F384628A404CEA0202E1
:103D2000C2505DF8044B704710B414304B0E9B002A
:103D300003F00403C458C1F304514FF0070C0CFA0C
:103D400001FC24EA0C0C8A404CEA0202C2505DF8E5
:103D5000044B704730B583B000230193002800F076
:103D6000E5800446436D13B323689A6812F0005F40
:103D700005D09A6822F0204222F03F029A60226821
:103D8000936813F0805F1FD1936823F0104323F0F2
:103D90003F0343F080539360654B1B689B09654A62
:103DA000A2FB03239B0901335B00019309E0FFF7AA
:103DB0003FFF0023A36584F85030D5E7019B013B0A
:103DC0000193019B002BF9D12268936813F0805F67
:103DD00040F08380636D43F010036365A36D43F08F
:103DE0000103A3650120936813F0040300D00123AD
:103DF000616D11F0100F40F09280002B40F08F8029
:103E0000636D23F4817343F002036365936813F0D9
:103E1000010F1BD1484B9A6812F0010200D0012219
:103E2000464B9B6813F0010300D001231343444A1F
:103E3000926812F0010200D00122134306D1636898
:103E400040498A6822F47C1213438B60627E636B64
:103E500043EA4233E2681343A268134394F82020F4
:103E600043EA0243012A3AD0A26A22B102F47072F4
:103E7000E16A0A4313432168CD68334A2A401A4352
:103E8000CA602268936813F0080300D00123ABB91D
:103E9000237E94F83010490041EA8331D36823F43B
:103EA000804323F002030B43D36094F83830012B96
:103EB0001AD02268136923F0010313612369012BCF
:103EC00024D02268136B23F00F031363636D23F078
:103ED000030343F00103636526E0002083E7626A81
:103EE000013A43EA4243BFE721680B6923F4FF63C9
:103EF00023F00403E26B256C2A43656C2A43A56C0E
:103F00002A43134343F001030B61D7E721680B6B8E
:103F100023F00F03E269013A13430B63D6E7636DA5
:103F200043F010036365012003B030BD0120FBE7BF
:103F300008000020632D3E050000045000010450DD
:103F4000000204500003045007C0F0FFF0B583B036
:103F50000023019390F85030012B00F00C820446AE
:103F60000D46012380F850300068836813F0040F79
:103F700009D0636D43F0200363650120002384F8BA
:103F8000503003B0F0BD4968052907D8023903292C
:103F90004ED8DFE801F0024F484A0C212A68FFF7AB
:103FA000ABFE2068836813F0040300D0012382680D
:103FB00012F0080200D001220BB9002A3CD022687E
:103FC000936813F0010F17D12B68E868D2F8B0108E
:103FD000C3F3120621EA060100F0180CA84820FAE3
:103FE0000CF00340C3F312030B43C2F8B030EA688D
:103FF000A44B9A4200F0A5802B68A34A134200F01C
:10400000B681A24A926802F0E070A1498B4200F0AA
:104010005881A0498B4200F07F819F498B4200F07C
:1040200093810020AAE71821B8E74FF48071B5E723
:104030000621B3E71221B1E7AA682968FFF774FEE9
:104040006A692168CB68C3F3C1035B009A402869A1
:1040500004280ED02E68603151F820708F4B3B4001
:1040600006F0F8463243134343F0004341F8203052
:10407000A5E70B6E0A6EC2F384622B68C3F31200CD
:1040800080BBC3F384639A4234D021684B6E4A6E7E
:10409000C2F384622B68C3F3120080BBC3F3846352
:1040A0009A4234D021688B6E8A6EC2F384622B6888
:1040B000C3F3120080BBC3F384639A4234D02168F7
:1040C000CB6ECA6EC2F384622B68C3F3120080BB4E
:1040D000C3F384639A427FF472AFCB6E23F0004344
:1040E000CB666CE793FAA3F313B1B3FA83F3CAE791
:1040F0002023C8E70B6E23F000430B66C5E793FA55
:10410000A3F313B1B3FA83F3CAE72023C8E74B6ED6
:1041100023F000434B66C5E793FAA3F313B1B3FA58
:1041200083F3CAE72023C8E78B6E23F000438B6636
:10413000C5E793FAA3F313B1B3FA83F3CAE72023D5
:10414000C8E720682B68C3F312063EBB9A0E013203
:1041500002F01F02092A8CBF00220122002A55D03A
:104160005EBB990E0131890601F0F8418EBB4FEA22
:10417000936C0CF1010C0CF01F0C012202FA0CF2F2
:104180001143AEBB9B0E013303F01F0303EB43034C
:104190001B051943AA68FFF7C7FD2DE793FAA3F2A1
:1041A0004AB1B2FA82F2013202F01F02092A8CBF30
:1041B00000220122D2E72022F5E793FAA3F131B1E0
:1041C000B1FA81F10131890601F0F841CEE72021F1
:1041D000F8E793FAA3F24AB1B2FA82F2013202F09E
:1041E0001F024FF0010C0CFA02F2C9E72022F5E79A
:1041F00093FAA3F343B1B3FA83F3013303F01F033C
:1042000003EB43031B05C4E72023F6E7E6B9990E49
:104210000131890601F0F84116BB4FEA936C0CF1AD
:10422000010C0CF01F0C012202FA0CF21143BEBB70
:104230009B0E013303F01F0303EB43031E3B1B05DF
:1042400043F000731943A5E793FAA3F131B1B1FA32
:1042500081F10131890601F0F841DDE72021F8E71D
:1042600093FAA3F24AB1B2FA82F2013202F01F02CB
:104270004FF0010C0CFA02F2D8E72022F5E700BF5C
:10428000FFFF070000007F4000000880000304508B
:10429000000052C7000084CB0100008000F0FF0343
:1042A00093FAA3F35BB1B3FA83F3013303F01F0373
:1042B00003EB43031E3B1B0543F00073C2E72023BF
:1042C000F3E712F4000F7FF4A4AE23682B4A934265
:1042D00005D002F50072934201D000204EE640F472
:1042E0000000274A936823F0E07318439060254B41
:1042F0001B689B09244AA2FB03239B09013303EBA0
:1043000043039B00019302E0019B013B0193019B4E
:10431000002BF9D1002031E612F0807F7FF47DAED2
:104320002368164A934205D002F50072934201D0E9
:10433000002023E640F0807311498A6822F0E07281
:1043400013438B60002019E612F4800F11D122680C
:104350000A4B9A4201D0002010E640F4800308493D
:104360008A6822F0E07213438B60002006E600208A
:1043700004E6002002E6022003E600BF000004502D
:104380000003045008000020632D3E0590F85020E3
:10439000012A00F08D8010B49BB00346012280F802
:1043A00050200022169217920068424A90423FD055
:1043B00000220192019A002A3ED0926812F0040273
:1043C00000D00122806810F0040F61D1002A5FD173
:1043D0000A68002A39D0384CA26822F46042486842
:1043E00093F830C040EA4C300243A260314A9068F2
:1043F00010F0010000D00120304A926812F0010252
:1044000000D0012202432E48806810F0010000D045
:104410000120024348D1284CA26822F4716222F0A4
:104420000F020868896801430A43A260002034E053
:1044300002F580720192BDE75A6D42F020025A6582
:10444000002283F8502001202AE01B498A6822F4C8
:1044500060428A60174A916811F0010100D0012181
:10446000164A926812F0010200D001220A43144950
:10447000896811F0010100D001210A4316D10E49CB
:104480008A6822F4716222F00F028A60002004E040
:104490005A6D42F020025A650120002283F8502014
:1044A0001BB05DF8044B70470020F6E70020F4E7EE
:1044B0000220704700000450000304500001045023
:1044C0000002045008B50B480B4B03604FF4E13376
:1044D000436000238360C36003610C2242618361F7
:1044E000C3610362436200F082FB00B908BDFBF7C1
:1044F0005FFFFBE75C1A00200044004010B5AAB043
:1045000004460021259126912791289129918822FE
:1045100003A800F0C6FB2268184B9A4201D02AB0CB
:1045200010BD0223039303A8FCF7FCFE10BB144B41
:104530009A6D42F400329A659A6D02F4003201924B
:10454000019ADA6C42F00102DA64DB6C03F00103D9
:104550000293029B0C232593022326930023279387
:10456000032328930723299325A94FF09040FDF7B3
:1045700003F9D4E7FBF71CFFD9E700BF0044004074
:1045800000100240026852E8003F23F4907342E8B2
:1045900000310029F6D1026802F1080353E8003F18
:1045A00023F00103083242E800310029F3D1036E01
:1045B000012B06D02023C0F88030002303668366D9
:1045C0007047026852E8003F23F0100342E80031D0
:1045D0000029F6D1EEE7000010B5044601688368B3
:1045E0000269134342691343C269134308688E4A40
:1045F00002401A430A602268536823F44053E1687A
:104600000B435360A1692268884B9A4201D0236A08
:104610001943936823F430630B4393602368844AFF
:10462000934210D0834A934221D0834A934237D099
:10463000824A93425CD0824A93426BD07B4A934237
:104640007DD010223AE002F55842D2F8882002F0DC
:104650000302032A09D8DFE802F0020487060122D8
:104660002CE004222AE0082228E0102226E002F5AD
:10467000E632D2F8882002F00C020C2A0ED8DFE8CD
:1046800002F0070D0D0D090D0D0D750D0D0D0B0033
:10469000002213E0042211E008220FE010220DE0B6
:1046A00002F5E432D2F8882002F03002202A5FD0EE
:1046B0001AD8002A5ED0102A5ED104225B498B42B0
:1046C00076D0E069B0F5004F00F0A380082A00F230
:1046D0000E81DFE812F0DD00F300DB000C01F600D4
:1046E0000C010C010C01F900302A47D10822E5E742
:1046F00002F5E232D2F8882002F0C002802A3FD0D0
:1047000004D8FAB3402A3FD10422D7E7C02A3DD1CA
:104710000822D3E702F5E032D2F8882002F4407292
:10472000B2F5007F34D005D8A2B3B2F5807F33D183
:104730000422C3E7B2F5407F30D10822BEE702F57C
:10474000C832D2F8882002F44062B2F5006F27D058
:1047500005D83AB3B2F5806F26D10422AEE7B2F5A0
:10476000406F23D10822A9E70222A7E70222A5E78A
:104770000222A3E70022A1E710229FE710229DE773
:1047800002229BE7002299E7102297E7102295E783
:10479000022293E7002291E710228FE710228DE793
:1047A00002228BE7002289E7102287E7102285E7A3
:1047B000082A00F28C80DFE802F0088A2A8A278A19
:1047C0008A8A05004FF4004003E0FCF70BFC002848
:1047D0007FD0626802EB420383427CD8B0EB023F99
:1047E0007BD8010E00025308C0184FF0000341F1BE
:1047F0000001FBF7D5FCA0F54072124B9A426ED82F
:104800002368D860002055E0FBF7BAFFDFE70E48C9
:10481000DFE7082A65D8DFE802F01933056436645B
:1048200064641D00084815E0F369FFEF0080004054
:10483000003801400044004000480040004C004067
:1048400000500040FFFC0F000024F400FCF7CAFBFE
:10485000002848D06268530803EB4003B3FBF2F32F
:10486000A3F110014FF6EF7291423ED89AB222F0B6
:104870000F02C3F3420313432268D360002019E000
:10488000FCF7C2FBE4E7FBF77BFFE1E71B4802E034
:10489000FCF7A8FB68B3636800EB5300B0FBF3F0D0
:1048A000A0F110024FF6EF739A4224D8236880B229
:1048B000D86000200023A366E36610BDFCF7A4FBCC
:1048C000E8E7FBF75DFFE5E74FF40040E3E7012091
:1048D000F0E70020EEE70120ECE70120EAE7012005
:1048E000E8E70120E6E70020E4E70120E2E7012015
:1048F000E0E70020DEE70120DCE700BF0024F40051
:10490000436A13F0080F06D00268536823F400438B
:10491000416B0B435360436A13F0010F06D00268EA
:10492000536823F40033816A0B435360436A13F0E6
:10493000020F06D00268536823F48033C16A0B4328
:104940005360436A13F0040F06D00268536823F4DF
:104950008023016B0B435360436A13F0100F06D0A2
:104960000268936823F48053816B0B439360436A1E
:1049700013F0200F06D00268936823F40053C16B34
:104980000B439360436A13F0400F0AD002685368E8
:1049900023F48013016C0B435360036CB3F5801F49
:1049A0000BD0436A13F0800F06D00268536823F4DB
:1049B0000023816C0B43536070470268536823F4F3
:1049C000C003416C0B435360EBE72DE9F843054608
:1049D0000F4616469946DDF820802B68DC6937EAD9
:1049E00004040CBF01240024B44232D1B8F1FF3FCB
:1049F000F3D0FBF777FEA0EB090040452CD8B8F1C7
:104A0000000F2BD02B681A6812F0040FE5D0DA697A
:104A100012F0080F11D1DA6912F4006FDDD04FF4F3
:104A200000621A622846FFF7ADFD2023C5F88430E6
:104A3000002385F8783003200CE008241C62284607
:104A4000FFF7A0FDC5F88440002385F878300120E9
:104A500000E00020BDE8F8830320FBE70320F9E72E
:104A60002DE9F04182B01E46C36F202B56D104467B
:104A70000D469046002955D00AB901204FE0002389
:104A8000C0F884302123C367FBF72CFE0746A4F847
:104A90005080A4F85280A368B3F5805F02D04FF035
:104AA000000818E0236913B14FF0000813E0A8468E
:104AB000002510E02023E367032030E038F8023BB4
:104AC0002268C3F308031385B4F8522092B2013A66
:104AD00092B2A4F85220B4F852309BB27BB1009647
:104AE0003B46002280212046FFF76FFF0028E1D1DE
:104AF000002DE3D015F8012B23681A85E4E7009612
:104B00003B46002240212046FFF75FFF10B92023DB
:104B1000E36704E02023E367032000E0022002B003
:104B2000BDE8F0810120FAE730B583B004460023E8
:104B3000C0F88430FBF7D6FD05462268126812F0F3
:104B4000080F0FD123681B6813F0040F26D1202310
:104B5000E367C4F8803000202066606684F878003F
:104B600003B030BD6FF07E430093034600224FF444
:104B700000112046FFF729FF0028E3D0226852E801
:104B8000003F23F0800342E800310029F6D12023C2
:104B9000E367002384F878300320E1E76FF07E4379
:104BA00000932B4600224FF480012046FFF70DFFB3
:104BB0000028CCD0226852E8003F23F4907342E8EA
:104BC00000310029F6D1226802F1080353E8003FC2
:104BD00023F00103083242E800310029F3D12023F9
:104BE000C4F88030002384F878300320B8E768B335
:104BF00010B50446C36F03B32423E3672268136828
:104C000023F001031360636AE3B92046FFF7E4FC75
:104C1000012811D02268536823F49043536022681E
:104C2000936823F02A0393602268136843F001031A
:104C300013602046FFF778FF10BD80F87830FFF74B
:104C40005DFCD9E72046FFF75BFEDEE701207047F9
:104C5000DFF834D0FDF700F90C480D490D4A002368
:104C600002E0D458C4500433C4188C42F9D30A4A21
:104C70000A4C002301E013600432A242FBD300F08F
:104C800019F8FBF7F9FBFEE7008001200000002087
:104C900010000020D850000810000020E41A002066
:104CA000FEE702440346934200D1704703F8011B1C
:104CB000F9E7000070B50D4D0D4C641BA4100026E3
:104CC000A64209D10B4D0C4C00F084F9641BA410D2
:104CD0000026A64205D170BD55F8043B9847013621
:104CE000EEE755F8043B98470136F2E7C850000854
:104CF000C8500008C8500008CC5000080A4491422F
:104D000000F1FF3300D1704710B511F8014B03F8E3
:104D1000014F9142F9D110BD2DE9F047089D0C4695
:104D2000002B4ED194468C458646B2FA82F262D967
:104D30004AB1C2F12003914020FA03F30CFA02FCBD
:104D4000194300FA02FE4FEA1C471FFA8CF6B1FB2A
:104D5000F7F44FEA1E4307FB141143EA014304FB37
:104D600006F199420AD91CEB030304F1FF3080F0ED
:104D70001281994240F20F81023C6344591A1FFA92
:104D80008EF3B1FBF7F007FB101143EA014300FB80
:104D900006F69E420AD91CEB030300F1FF3180F0B6
:104DA000FC809E4240F2F980634402389B1B40EA3B
:104DB000044000211DB1D3400022C5E90032BDE806
:104DC000F0878B4205D90DB1C5E9000100210846E5
:104DD000F5E7B3FA83F1002946D1A34202D390420A
:104DE000C0F0F080861A64EB03030120002DE6D0AA
:104DF000C5E90063E3E7002A40F09080A1EB0C04D2
:104E00004FEA1C481FFA8CF70121B4FBF8F64FEA71
:104E10001E4308FB164443EA044307FB06F098428E
:104E200008D91CEB030306F1FF3402D2984200F2CA
:104E3000CD8026461C1A1FFA8EF3B4FBF8F008FB4F
:104E4000104443EA044300FB07F79F4208D91CEBD8
:104E5000030300F1FF3402D29F4200F2B0802046EB
:104E6000DB1B40EA0640A5E7C1F120068B4022FA91
:104E700006F71F4320FA06FC04FA01F343EA0C0389
:104E8000F44000FA01F8380C4FEA1349B4FBF0FE85
:104E90001FFA87FC00FB1E4449EA04440EFB0CF990
:104EA000A14502FA01F20AD93C190EF1FF3A80F04D
:104EB0008480A14540F28180AEF1020E3C44A4EB17
:104EC00009041FFA83F9B4FBF0F300FB134449EA29
:104ED000044403FB0CFCA44507D93C1903F1FF3043
:104EE00067D2A44565D9023B3C4443EA0E40A0FB8F
:104EF0000293A4EB0C049C42CE469C4651D34ED068
:104F000055B1B8EB0E0364EB0C0404FA06F6CB4083
:104F10001E43CC40C5E90064002150E7C2F12003E4
:104F200020FA03F10CFA02FC24FA03F394400C4338
:104F30004FEA1C4800FA02FE1FFA8CF7B3FBF8F0A8
:104F400008FB1031230C43EA014300FB07F19942AF
:104F500008D91CEB030300F1FF362CD299422AD961
:104F6000023863445B1AA4B2B3FBF8F108FB1133B7
:104F700044EA034401FB07F3A34208D91CEB0404F1
:104F800001F1FF3613D2A34211D902396444E41A65
:104F900041EA004139E70446F0E6084606E7C8451D
:104FA000AED2B9EB020E63EB070C0138A8E731462D
:104FB000EDE7034699E73046D4E7D6467FE76344FA
:104FC00002384DE70646234608460FE7023E634493
:104FD00030E700BFF8B500BFF8BC08BC9E4670477C
:104FE000F8B500BFF8BC08BC9E4670470000000042
:104FF0007265640D0A000000626C75650D0A0000A0
:1050000079656C6C6F770D0A00000000677265654A
:105010006E0D0A004C454420466C61736820546153
:10502000736B0000427574746F6E205461736B0073
:1050300064656661756C745461736B003050000870
:105040000000000000000000000000000000000060
:105050000002000018000000000000000000000036
:10506000A0860100400D0300801A060000350C00E8
:1050700040420F0080841E0000093D0000127A00AB
:105080000024F40000366E010048E801006CDC02E8
:105090000000000001020304000000000000000006
:1050A000010203040607080949444C4500000000BA
:1050B000546D725100000000546D722053766300ED
:0850C000D0B0FF7F01000000E9
:0850C8003D0200080000000099
:0850D0001502000800000000B9
:1050D800010000001000000000093D00AAAAAAAAC9
:0400000508004C5152
:00000001FF
